:080000000C9438000C94000080
:100008000C9400000C9400000C9400000C94000068
:100018000C9400000C9400000C9400000C94000058
:100028000C9400000C9465000C9400000C940000E3
:100038000C9400000C9400000C9400000C94000038
:100048000C9400000C9400000C9400003F065B4FD9
:10005800666D7D077F6F090309030A00600254007B
:10006800040070025E000000F894EE27ECBBF1E09B
:10007800FBBFEBBFE5BF8DE0A2E0BB27ED938A9500
:10008800E9F780E098E0A0E6ED930197E9F7E2E66A
:10009800F0E085919591009761F0A591B591059053
:1000A8001590BF01F00105900D920197E1F7FB0152
:1000B800F0CFEFE5EDBFE8E0EEBFC0E6D2E00C948C
:1000C8001501AA93EA93EFB7EA93E3E8E2BFE09158
:1000D8006A02EF5FE0936A02E0916D02EF5FE093DE
:1000E8006D02A0916D02AF3348F0E0E0E0936D023D
:1000F800A0916E02E1E0EA27E0936E02A0916A0205
:10010800AD3788F0E0E0E0936A02E0916B02EF5FC0
:10011800E0936B02A0916C02A13028F0E0916C0290
:10012800E150E0936C02E991EFBFE991A99118952C
:10013800AA931A930A9310E000E0EA81F0E030975E
:1001480019F414E602E022C0E130A0E0FA0751F405
:10015800E0916E02E03019F012E904E002C010E00C
:1001680000E014C0E230A0E0FA0719F419E009E051
:100178000DC0E330A0E0FA0749F4E0916E02E030E8
:1001880019F012E904E002C010E000E01BBBE02F08
:10019800EF70E8BB1981088123960895AA93E0E0DF
:1001A800E2BBE881F0E0E05AFD4FE081E5BBE0E129
:1001B800E2BBA5E0B0E00E942C012196089541D051
:1001C800A0916B02AE17A0F0E0E0E0936B02E09321
:1001D8006E02E0936D02E0916F02F0E03196A3E0C9
:1001E800B0E00E943A01E0936F022BD0E0936C02DA
:1001F8000895EFEFEABBE0E0EBBBEFEFE7BBE0E031
:10020800E8BBEFEFE4BBE0E0E5BBEFEFE1BBE0E02C
:10021800E2BB0895E4E0E3BFE3E8E2BFE1E0E9BF61
:100228000895E7DFF7DFE0917002E0936C027894BD
:10023800C6DFA0916F027CDFA0916C02AFDFF8CF20
:10024800FFCFE0916F02F0E0E059FD4FE0810895A3
:10025800109639F0A89580ED97E00197F1F711977E
:10026800C9F70895F195E195F0400895E894F7FFEE
:1002780002C0F8DF6894EA23FB230EF4F3DF089545
:00000001FF
